{
    "_format": "hh-sol-artifact-1",
    "contractName": "Semaphore",
    "sourceName": "contracts/Semaphore.sol",
    "abi": [
        {
            "inputs": [
                {
                    "internalType": "contract ISemaphoreVerifier",
                    "name": "_verifier",
                    "type": "address"
                }
            ],
            "stateMutability": "nonpayable",
            "type": "constructor"
        },
        {
            "inputs": [],
            "name": "LeafAlreadyExists",
            "type": "error"
        },
        {
            "inputs": [],
            "name": "LeafCannotBeZero",
            "type": "error"
        },
        {
            "inputs": [],
            "name": "LeafDoesNotExist",
            "type": "error"
        },
        {
            "inputs": [],
            "name": "LeafGreaterThanSnarkScalarField",
            "type": "error"
        },
        {
            "inputs": [],
            "name": "Semaphore__CallerIsNotTheGroupAdmin",
            "type": "error"
        },
        {
            "inputs": [],
            "name": "Semaphore__CallerIsNotThePendingGroupAdmin",
            "type": "error"
        },
        {
            "inputs": [],
            "name": "Semaphore__GroupDoesNotExist",
            "type": "error"
        },
        {
            "inputs": [],
            "name": "Semaphore__GroupHasNoMembers",
            "type": "error"
        },
        {
            "inputs": [],
            "name": "Semaphore__InvalidProof",
            "type": "error"
        },
        {
            "inputs": [],
            "name": "Semaphore__MerkleTreeDepthIsNotSupported",
            "type": "error"
        },
        {
            "inputs": [],
            "name": "Semaphore__MerkleTreeRootIsExpired",
            "type": "error"
        },
        {
            "inputs": [],
            "name": "Semaphore__MerkleTreeRootIsNotPartOfTheGroup",
            "type": "error"
        },
        {
            "inputs": [],
            "name": "Semaphore__YouAreUsingTheSameNullifierTwice",
            "type": "error"
        },
        {
            "inputs": [],
            "name": "WrongSiblingNodes",
            "type": "error"
        },
        {
            "anonymous": false,
            "inputs": [
                {
                    "indexed": true,
                    "internalType": "uint256",
                    "name": "groupId",
                    "type": "uint256"
                },
                {
                    "indexed": true,
                    "internalType": "address",
                    "name": "oldAdmin",
                    "type": "address"
                },
                {
                    "indexed": true,
                    "internalType": "address",
                    "name": "newAdmin",
                    "type": "address"
                }
            ],
            "name": "GroupAdminPending",
            "type": "event"
        },
        {
            "anonymous": false,
            "inputs": [
                {
                    "indexed": true,
                    "internalType": "uint256",
                    "name": "groupId",
                    "type": "uint256"
                },
                {
                    "indexed": true,
                    "internalType": "address",
                    "name": "oldAdmin",
                    "type": "address"
                },
                {
                    "indexed": true,
                    "internalType": "address",
                    "name": "newAdmin",
                    "type": "address"
                }
            ],
            "name": "GroupAdminUpdated",
            "type": "event"
        },
        {
            "anonymous": false,
            "inputs": [
                {
                    "indexed": true,
                    "internalType": "uint256",
                    "name": "groupId",
                    "type": "uint256"
                }
            ],
            "name": "GroupCreated",
            "type": "event"
        },
        {
            "anonymous": false,
            "inputs": [
                {
                    "indexed": true,
                    "internalType": "uint256",
                    "name": "groupId",
                    "type": "uint256"
                },
                {
                    "indexed": false,
                    "internalType": "uint256",
                    "name": "oldMerkleTreeDuration",
                    "type": "uint256"
                },
                {
                    "indexed": false,
                    "internalType": "uint256",
                    "name": "newMerkleTreeDuration",
                    "type": "uint256"
                }
            ],
            "name": "GroupMerkleTreeDurationUpdated",
            "type": "event"
        },
        {
            "anonymous": false,
            "inputs": [
                {
                    "indexed": true,
                    "internalType": "uint256",
                    "name": "groupId",
                    "type": "uint256"
                },
                {
                    "indexed": true,
                    "internalType": "uint256",
                    "name": "treeIndex",
                    "type": "uint256"
                },
                {
                    "indexed": false,
                    "internalType": "uint256",
                    "name": "index",
                    "type": "uint256"
                },
                {
                    "indexed": false,
                    "internalType": "uint256",
                    "name": "identityCommitment",
                    "type": "uint256"
                },
                {
                    "indexed": false,
                    "internalType": "uint256",
                    "name": "merkleTreeRoot",
                    "type": "uint256"
                }
            ],
            "name": "MemberAdded",
            "type": "event"
        },
        {
            "anonymous": false,
            "inputs": [
                {
                    "indexed": true,
                    "internalType": "uint256",
                    "name": "groupId",
                    "type": "uint256"
                },
                {
                    "indexed": true,
                    "internalType": "uint256",
                    "name": "treeIndex",
                    "type": "uint256"
                },
                {
                    "indexed": false,
                    "internalType": "uint256",
                    "name": "index",
                    "type": "uint256"
                },
                {
                    "indexed": false,
                    "internalType": "uint256",
                    "name": "identityCommitment",
                    "type": "uint256"
                },
                {
                    "indexed": false,
                    "internalType": "uint256",
                    "name": "merkleTreeRoot",
                    "type": "uint256"
                }
            ],
            "name": "MemberRemoved",
            "type": "event"
        },
        {
            "anonymous": false,
            "inputs": [
                {
                    "indexed": true,
                    "internalType": "uint256",
                    "name": "groupId",
                    "type": "uint256"
                },
                {
                    "indexed": true,
                    "internalType": "uint256",
                    "name": "treeIndex",
                    "type": "uint256"
                },
                {
                    "indexed": false,
                    "internalType": "uint256",
                    "name": "index",
                    "type": "uint256"
                },
                {
                    "indexed": false,
                    "internalType": "uint256",
                    "name": "oldIdentityCommitment",
                    "type": "uint256"
                },
                {
                    "indexed": false,
                    "internalType": "uint256",
                    "name": "newIdentityCommitment",
                    "type": "uint256"
                },
                {
                    "indexed": false,
                    "internalType": "uint256",
                    "name": "merkleTreeRoot",
                    "type": "uint256"
                }
            ],
            "name": "MemberUpdated",
            "type": "event"
        },
        {
            "anonymous": false,
            "inputs": [
                {
                    "indexed": true,
                    "internalType": "uint256",
                    "name": "groupId",
                    "type": "uint256"
                },
                {
                    "indexed": true,
                    "internalType": "uint256",
                    "name": "treeIndex",
                    "type": "uint256"
                },
                {
                    "indexed": false,
                    "internalType": "uint256",
                    "name": "startIndex",
                    "type": "uint256"
                },
                {
                    "indexed": false,
                    "internalType": "uint256[]",
                    "name": "identityCommitments",
                    "type": "uint256[]"
                },
                {
                    "indexed": false,
                    "internalType": "uint256",
                    "name": "merkleTreeRoot",
                    "type": "uint256"
                }
            ],
            "name": "MembersAdded",
            "type": "event"
        },
        {
            "anonymous": false,
            "inputs": [
                {
                    "indexed": true,
                    "internalType": "uint256",
                    "name": "groupId",
                    "type": "uint256"
                },
                {
                    "indexed": false,
                    "internalType": "uint256",
                    "name": "treeIndex",
                    "type": "uint256"
                },
                {
                    "indexed": false,
                    "internalType": "uint256",
                    "name": "merkleTreeDepth",
                    "type": "uint256"
                },
                {
                    "indexed": true,
                    "internalType": "uint256",
                    "name": "merkleTreeRoot",
                    "type": "uint256"
                },
                {
                    "indexed": false,
                    "internalType": "uint256",
                    "name": "nullifier",
                    "type": "uint256"
                },
                {
                    "indexed": false,
                    "internalType": "uint256",
                    "name": "message",
                    "type": "uint256"
                },
                {
                    "indexed": false,
                    "internalType": "uint256",
                    "name": "scope",
                    "type": "uint256"
                },
                {
                    "indexed": false,
                    "internalType": "uint256[8]",
                    "name": "points",
                    "type": "uint256[8]"
                }
            ],
            "name": "ProofValidated",
            "type": "event"
        },
        {
            "inputs": [
                {
                    "internalType": "uint256",
                    "name": "groupId",
                    "type": "uint256"
                }
            ],
            "name": "acceptGroupAdmin",
            "outputs": [],
            "stateMutability": "nonpayable",
            "type": "function"
        },
        {
            "inputs": [
                {
                    "internalType": "uint256",
                    "name": "groupId",
                    "type": "uint256"
                },
                {
                    "internalType": "uint256",
                    "name": "identityCommitment",
                    "type": "uint256"
                }
            ],
            "name": "addMember",
            "outputs": [],
            "stateMutability": "nonpayable",
            "type": "function"
        },
        {
            "inputs": [
                {
                    "internalType": "uint256",
                    "name": "groupId",
                    "type": "uint256"
                },
                {
                    "internalType": "uint256[]",
                    "name": "identityCommitments",
                    "type": "uint256[]"
                }
            ],
            "name": "addMembers",
            "outputs": [],
            "stateMutability": "nonpayable",
            "type": "function"
        },
        {
            "inputs": [
                {
                    "internalType": "address",
                    "name": "admin",
                    "type": "address"
                },
                {
                    "internalType": "uint256",
                    "name": "maxTreeSize",
                    "type": "uint256"
                }
            ],
            "name": "createGroup",
            "outputs": [
                {
                    "internalType": "uint256",
                    "name": "groupId",
                    "type": "uint256"
                }
            ],
            "stateMutability": "nonpayable",
            "type": "function"
        },
        {
            "inputs": [],
            "name": "createGroup",
            "outputs": [
                {
                    "internalType": "uint256",
                    "name": "groupId",
                    "type": "uint256"
                }
            ],
            "stateMutability": "nonpayable",
            "type": "function"
        },
        {
            "inputs": [
                {
                    "internalType": "address",
                    "name": "admin",
                    "type": "address"
                }
            ],
            "name": "createGroup",
            "outputs": [
                {
                    "internalType": "uint256",
                    "name": "groupId",
                    "type": "uint256"
                }
            ],
            "stateMutability": "nonpayable",
            "type": "function"
        },
        {
            "inputs": [
                {
                    "internalType": "uint256",
                    "name": "groupId",
                    "type": "uint256"
                }
            ],
            "name": "getCurrentTreeIndex",
            "outputs": [
                {
                    "internalType": "uint256",
                    "name": "",
                    "type": "uint256"
                }
            ],
            "stateMutability": "view",
            "type": "function"
        },
        {
            "inputs": [
                {
                    "internalType": "uint256",
                    "name": "groupId",
                    "type": "uint256"
                }
            ],
            "name": "getGlobalRoot",
            "outputs": [
                {
                    "internalType": "uint256",
                    "name": "",
                    "type": "uint256"
                }
            ],
            "stateMutability": "view",
            "type": "function"
        },
        {
            "inputs": [
                {
                    "internalType": "uint256",
                    "name": "groupId",
                    "type": "uint256"
                }
            ],
            "name": "getGroupAdmin",
            "outputs": [
                {
                    "internalType": "address",
                    "name": "",
                    "type": "address"
                }
            ],
            "stateMutability": "view",
            "type": "function"
        },
        {
            "inputs": [
                {
                    "internalType": "uint256",
                    "name": "groupId",
                    "type": "uint256"
                }
            ],
            "name": "getGroupTreeCount",
            "outputs": [
                {
                    "internalType": "uint256",
                    "name": "",
                    "type": "uint256"
                }
            ],
            "stateMutability": "view",
            "type": "function"
        },
        {
            "inputs": [
                {
                    "internalType": "uint256",
                    "name": "groupId",
                    "type": "uint256"
                }
            ],
            "name": "getMaxTreeSize",
            "outputs": [
                {
                    "internalType": "uint256",
                    "name": "",
                    "type": "uint256"
                }
            ],
            "stateMutability": "view",
            "type": "function"
        },
        {
            "inputs": [
                {
                    "internalType": "uint256",
                    "name": "groupId",
                    "type": "uint256"
                },
                {
                    "internalType": "uint256",
                    "name": "treeIndex",
                    "type": "uint256"
                }
            ],
            "name": "getMerkleTreeDepth",
            "outputs": [
                {
                    "internalType": "uint256",
                    "name": "",
                    "type": "uint256"
                }
            ],
            "stateMutability": "view",
            "type": "function"
        },
        {
            "inputs": [
                {
                    "internalType": "uint256",
                    "name": "groupId",
                    "type": "uint256"
                },
                {
                    "internalType": "uint256",
                    "name": "treeIndex",
                    "type": "uint256"
                }
            ],
            "name": "getMerkleTreeRoot",
            "outputs": [
                {
                    "internalType": "uint256",
                    "name": "",
                    "type": "uint256"
                }
            ],
            "stateMutability": "view",
            "type": "function"
        },
        {
            "inputs": [
                {
                    "internalType": "uint256",
                    "name": "groupId",
                    "type": "uint256"
                },
                {
                    "internalType": "uint256",
                    "name": "treeIndex",
                    "type": "uint256"
                }
            ],
            "name": "getMerkleTreeSize",
            "outputs": [
                {
                    "internalType": "uint256",
                    "name": "",
                    "type": "uint256"
                }
            ],
            "stateMutability": "view",
            "type": "function"
        },
        {
            "inputs": [
                {
                    "internalType": "uint256",
                    "name": "groupId",
                    "type": "uint256"
                },
                {
                    "internalType": "uint256",
                    "name": "treeIndex",
                    "type": "uint256"
                }
            ],
            "name": "getSubgroupMembers",
            "outputs": [
                {
                    "internalType": "uint256[]",
                    "name": "",
                    "type": "uint256[]"
                }
            ],
            "stateMutability": "view",
            "type": "function"
        },
        {
            "inputs": [],
            "name": "groupCounter",
            "outputs": [
                {
                    "internalType": "uint256",
                    "name": "",
                    "type": "uint256"
                }
            ],
            "stateMutability": "view",
            "type": "function"
        },
        {
            "inputs": [
                {
                    "internalType": "uint256",
                    "name": "",
                    "type": "uint256"
                }
            ],
            "name": "groups",
            "outputs": [
                {
                    "internalType": "uint256",
                    "name": "merkleTreeDuration",
                    "type": "uint256"
                },
                {
                    "internalType": "uint256",
                    "name": "maxTreeSize",
                    "type": "uint256"
                },
                {
                    "internalType": "uint256",
                    "name": "currentTreeIndex",
                    "type": "uint256"
                },
                {
                    "internalType": "uint256",
                    "name": "globalMerkleRoot",
                    "type": "uint256"
                }
            ],
            "stateMutability": "view",
            "type": "function"
        },
        {
            "inputs": [
                {
                    "internalType": "uint256",
                    "name": "groupId",
                    "type": "uint256"
                },
                {
                    "internalType": "uint256",
                    "name": "treeIndex",
                    "type": "uint256"
                },
                {
                    "internalType": "uint256",
                    "name": "identityCommitment",
                    "type": "uint256"
                }
            ],
            "name": "hasMember",
            "outputs": [
                {
                    "internalType": "bool",
                    "name": "",
                    "type": "bool"
                }
            ],
            "stateMutability": "view",
            "type": "function"
        },
        {
            "inputs": [
                {
                    "internalType": "uint256",
                    "name": "groupId",
                    "type": "uint256"
                },
                {
                    "internalType": "uint256",
                    "name": "treeIndex",
                    "type": "uint256"
                },
                {
                    "internalType": "uint256",
                    "name": "identityCommitment",
                    "type": "uint256"
                }
            ],
            "name": "indexOf",
            "outputs": [
                {
                    "internalType": "uint256",
                    "name": "",
                    "type": "uint256"
                }
            ],
            "stateMutability": "view",
            "type": "function"
        },
        {
            "inputs": [
                {
                    "internalType": "uint256",
                    "name": "identityCommitment",
                    "type": "uint256"
                }
            ],
            "name": "isGlobalMember",
            "outputs": [
                {
                    "internalType": "bool",
                    "name": "",
                    "type": "bool"
                }
            ],
            "stateMutability": "view",
            "type": "function"
        },
        {
            "inputs": [
                {
                    "internalType": "uint256",
                    "name": "groupId",
                    "type": "uint256"
                },
                {
                    "internalType": "uint256",
                    "name": "treeIndex",
                    "type": "uint256"
                },
                {
                    "internalType": "uint256",
                    "name": "identityCommitment",
                    "type": "uint256"
                },
                {
                    "internalType": "uint256[]",
                    "name": "merkleProofSiblings",
                    "type": "uint256[]"
                }
            ],
            "name": "removeMember",
            "outputs": [],
            "stateMutability": "nonpayable",
            "type": "function"
        },
        {
            "inputs": [
                {
                    "internalType": "uint256",
                    "name": "groupId",
                    "type": "uint256"
                },
                {
                    "internalType": "address",
                    "name": "newAdmin",
                    "type": "address"
                }
            ],
            "name": "updateGroupAdmin",
            "outputs": [],
            "stateMutability": "nonpayable",
            "type": "function"
        },
        {
            "inputs": [
                {
                    "internalType": "uint256",
                    "name": "groupId",
                    "type": "uint256"
                },
                {
                    "internalType": "uint256",
                    "name": "newMerkleTreeDuration",
                    "type": "uint256"
                }
            ],
            "name": "updateGroupMerkleTreeDuration",
            "outputs": [],
            "stateMutability": "nonpayable",
            "type": "function"
        },
        {
            "inputs": [
                {
                    "internalType": "uint256",
                    "name": "groupId",
                    "type": "uint256"
                },
                {
                    "internalType": "uint256",
                    "name": "treeIndex",
                    "type": "uint256"
                },
                {
                    "internalType": "uint256",
                    "name": "oldIdentityCommitment",
                    "type": "uint256"
                },
                {
                    "internalType": "uint256",
                    "name": "newIdentityCommitment",
                    "type": "uint256"
                },
                {
                    "internalType": "uint256[]",
                    "name": "merkleProofSiblings",
                    "type": "uint256[]"
                }
            ],
            "name": "updateMember",
            "outputs": [],
            "stateMutability": "nonpayable",
            "type": "function"
        },
        {
            "inputs": [
                {
                    "internalType": "uint256",
                    "name": "groupId",
                    "type": "uint256"
                },
                {
                    "components": [
                        {
                            "internalType": "uint256[8]",
                            "name": "points",
                            "type": "uint256[8]"
                        },
                        {
                            "internalType": "uint256",
                            "name": "merkleTreeRoot",
                            "type": "uint256"
                        },
                        {
                            "internalType": "uint256",
                            "name": "nullifier",
                            "type": "uint256"
                        },
                        {
                            "internalType": "uint256",
                            "name": "treeIndex",
                            "type": "uint256"
                        },
                        {
                            "internalType": "uint256",
                            "name": "merkleTreeDepth",
                            "type": "uint256"
                        },
                        {
                            "internalType": "uint256",
                            "name": "message",
                            "type": "uint256"
                        },
                        {
                            "internalType": "uint256",
                            "name": "scope",
                            "type": "uint256"
                        }
                    ],
                    "internalType": "struct ISemaphore.SemaphoreProof",
                    "name": "proof",
                    "type": "tuple"
                }
            ],
            "name": "validateProof",
            "outputs": [],
            "stateMutability": "nonpayable",
            "type": "function"
        },
        {
            "inputs": [],
            "name": "verifier",
            "outputs": [
                {
                    "internalType": "contract ISemaphoreVerifier",
                    "name": "",
                    "type": "address"
                }
            ],
            "stateMutability": "view",
            "type": "function"
        },
        {
            "inputs": [
                {
                    "internalType": "uint256",
                    "name": "groupId",
                    "type": "uint256"
                },
                {
                    "components": [
                        {
                            "internalType": "uint256[8]",
                            "name": "points",
                            "type": "uint256[8]"
                        },
                        {
                            "internalType": "uint256",
                            "name": "merkleTreeRoot",
                            "type": "uint256"
                        },
                        {
                            "internalType": "uint256",
                            "name": "nullifier",
                            "type": "uint256"
                        },
                        {
                            "internalType": "uint256",
                            "name": "treeIndex",
                            "type": "uint256"
                        },
                        {
                            "internalType": "uint256",
                            "name": "merkleTreeDepth",
                            "type": "uint256"
                        },
                        {
                            "internalType": "uint256",
                            "name": "message",
                            "type": "uint256"
                        },
                        {
                            "internalType": "uint256",
                            "name": "scope",
                            "type": "uint256"
                        }
                    ],
                    "internalType": "struct ISemaphore.SemaphoreProof",
                    "name": "proof",
                    "type": "tuple"
                }
            ],
            "name": "verifyProof",
            "outputs": [
                {
                    "internalType": "bool",
                    "name": "",
                    "type": "bool"
                }
            ],
            "stateMutability": "view",
            "type": "function"
        }
    ],
    "bytecode": "0x608060405234801561001057600080fd5b50604051611fce380380611fce83398101604081905261002f91610054565b600780546001600160a01b0319166001600160a01b0392909216919091179055610084565b60006020828403121561006657600080fd5b81516001600160a01b038116811461007d57600080fd5b9392505050565b611f3b806100936000396000f3fe608060405234801561001057600080fd5b50600436106101a95760003560e01c80638ee28188116100f9578063ce769d1111610097578063da3cda5211610071578063da3cda5214610459578063e4fdebe71461046c578063f995bac31461047f578063fcf0b6ec146104a257600080fd5b8063ce769d1114610414578063d24924fe1461043d578063d39842e81461044657600080fd5b8063a76a3aaf116100d3578063a76a3aaf1461037f578063a9961c941461039f578063baffe094146103c8578063c1947278146103f457600080fd5b80638ee281881461030457806396324bd4146103175780639b3c89ba1461036c57600080fd5b806340f9894a11610166578063575185ed11610140578063575185ed146102b65780635c3f3b60146102be5780637b2c972f146102d15780638688ee08146102e457600080fd5b806340f9894a1461026d57806342b2d21914610280578063568ee826146102a357600080fd5b806304245371146101ae5780630c95da4e146101c35780631783efc3146101f95780632b7ac3f31461020c5780632c8803631461023757806335e9ca811461024a575b600080fd5b6101c16101bc3660046119a8565b6104b5565b005b6101e66101d13660046119f4565b60009081526008602052604090206005015490565b6040519081526020015b60405180910390f35b6101c1610207366004611a0d565b610534565b60075461021f906001600160a01b031681565b6040516001600160a01b0390911681526020016101f0565b6101e6610245366004611a4b565b610569565b61025d610258366004611a75565b6105bb565b60405190151581526020016101f0565b6101e661027b366004611a75565b6105e9565b61025d61028e3660046119f4565b60009081526005602052604090205460ff1690565b6101c16102b1366004611aa1565b61060a565b6101e6610614565b6101e66102cc366004611acd565b610627565b6101c16102df366004611ae8565b61063b565b6102f76102f2366004611a0d565b610659565b6040516101f09190611b49565b6101e6610312366004611a0d565b6106c4565b61034c6103253660046119f4565b60086020526000908152604090208054600182015460048301546005909301549192909184565b6040805194855260208501939093529183015260608201526080016101f0565b6101c161037a366004611b8d565b6106f3565b6101e661038d3660046119f4565b60009081526001602052604090205490565b61021f6103ad3660046119f4565b6000908152600360205260409020546001600160a01b031690565b6101e66103d6366004611a0d565b60009182526020828152604080842092845291905290206001015490565b6101e66104023660046119f4565b60009081526002602052604090205490565b6101e6610422366004611a0d565b60009182526020828152604080842092845291905290205490565b6101e660095481565b61025d610454366004611b8d565b6107ee565b6101c16104673660046119f4565b610a65565b6101c161047a366004611bc7565b610a71565b6101e661048d3660046119f4565b60009081526008602052604090206004015490565b6101c16104b0366004611a0d565b610aa7565b60005b8181101561052557600560008484848181106104d6576104d6611c31565b602090810292909201358352508101919091526040016000205460ff1661051d576105198484848481811061050d5761050d611c31565b90506020020135610b37565b5050505b6001016104b8565b5061052f83610cfa565b505050565b60008181526005602052604090205460ff161561054f575050565b6105598282610b37565b50505061056582610cfa565b5050565b600980546000918261057a83611c5d565b91905055905061058b818484610dd9565b6000818152600860205260408120610e108155600181019390935560048301819055600590920191909155919050565b600083815260208181526040808320858452825280832084845260030190915281205415155b949350505050565b60008381526020818152604080832085845290915281206105e19083610e7d565b6105658282610eca565b600061062233610400610569565b905090565b600061063582610400610569565b92915050565b6106488585858585610f5e565b5061065285610cfa565b5050505050565b60008281526006602090815260408083208484528252918290208054835181840281018401909452808452606093928301828280156106b757602002820191906000526020600020905b8154815260200190600101908083116106a3575b5050505050905092915050565b6000828152602081815260408083208484528252808320600181015484526002019091528120545b9392505050565b6000828152600860209081526040808320610120850135845260020190915290205460ff16156107365760405163041162bd60e31b815260040160405180910390fd5b61074082826107ee565b61075d5760405163012a9af160e61b815260040160405180910390fd5b6000828152600860209081526040808320610120850135808552600290910190925291829020805460ff1916600117905590516101008301359184917f88268cb278f123a727e593639f6717b51b2e3fc5692f5cc74c95d68dcb2fef97916107e2916101408701359161016088013591610180890135906101a08a0135908a90611c76565b60405180910390a35050565b60008281526003602052604081205483906001600160a01b03166108255760405163029f057960e01b815260040160405180910390fd5b6001610160840135108061083e57506020610160840135115b1561085c5760405163767b278960e11b815260040160405180910390fd5b60008481526020818152604080832061014087013584529091528120549081900361089a5760405163c8b02e0160e01b815260040160405180910390fd5b60006108ab868661014001356106c4565b905080856101000135146109335760008681526008602081815260408084206101008a01358552600381018352908420548a855292909152549091829003610906576040516326994ac360e11b815260040160405180910390fd5b6109108183611cae565b421115610930576040516309581a9960e41b815260040160405180910390fd5b50505b60075460408051808201825287358152602080890135818301528251608080820185528a8501358286019081526060808d013590840152825284518086018652818c0135815260a08c013581850152828401528451808601865260c08c0135815260e08c013581850152855191820186526101008c013582526101208c0135938201939093526001600160a01b039095169463a23f01999491929181016109de6101808d013561109c565b81526020016109f18c6101a0013561109c565b8152508a61016001356040518663ffffffff1660e01b8152600401610a1a959493929190611cea565b602060405180830381865afa158015610a37573d6000803e3d6000fd5b505050506040513d601f19601f82011682018060405250810190610a5b9190611d76565b9695505050505050565b610a6e816110d3565b50565b60008381526005602052604090205460ff16610a9f57610a95868686868686611178565b50610a9f86610cfa565b505050505050565b60008281526003602052604090205482906001600160a01b03163314610ae0576040516317737e4f60e31b815260040160405180910390fd5b60008381526008602090815260409182902080549085905582518181529182018590529185917f264b2a8f6763c084235fe832ba903482b2ef1a521336881fc75b987c2dfd29c5910160405180910390a250505050565b6000828152600360205260408120548190819085906001600160a01b03163314610b74576040516317737e4f60e31b815260040160405180910390fd5b60008581526005602052604090205460ff1615610bd557600086815260016020819052604090912054610ba79190611d98565b6000878152602081815260408083208484529091529020549093509150610bce86846106c4565b9350610cf2565b600086815260016020819052604090912054610bf19190611d98565b6000878152602081815260408083208484528252808320548a845260029092529091205491945092508210610c47576000868152600160205260408120805494508491610c3d83611c5d565b9190505550600091505b6000868152602081815260408083208684529091529020610c6890866112de565b6000868152600560209081526040808320805460ff191660019081179091558a8452600683528184208885528352818420805491820181558452928290209092018890558151858152908101889052908101829052909450839087907ff32549cb6f4fb42a349218a927d6d457811bd016ee0267ab8c5a0505ca8ca0e59060600160405180910390a35b509250925092565b600081815260086020526040812060040154815b818111610dc2576000610d2185836106c4565b604080518082018252868152602081018390529051632b0aac7f60e11b815291925073__$75f79a42d9bcbdbb69ad79ebd80f556f39$__9163561558fe91610d6b91600401611dab565b602060405180830381865af4158015610d88573d6000803e3d6000fd5b505050506040513d601f19601f82011682018060405250810190610dac9190611ddc565b9350508080610dba90611c5d565b915050610d0e565b505060009182526008602052604090912060050155565b600083815260036020908152604080832080546001600160a01b0319166001600160a01b03871617905560028252808320849055600191829052808320919091555184917ff0adfb94eab6daf835deb69c5738fe636150c3dfd08094a76f39b963dc8cb05a91a26040516001600160a01b0383169060009085907f0ba83579a0e79193ef649b9f5a8759d35af086ba62a3e207b52e4a8ae30d49e3908390a4505050565b60008181526003830160205260408120548103610ead57604051631c811d5b60e21b815260040160405180910390fd5b60008281526003840160205260409020546106ec90600190611d98565b60008281526003602052604090205482906001600160a01b03163314610f03576040516317737e4f60e31b815260040160405180910390fd5b60008381526004602052604080822080546001600160a01b0319166001600160a01b03861690811790915590519091339186917f1018365553cce55d9cb02ef73e18cc9311894f3fe1d1eafd235ac2d26cd8ba5891a4505050565b60008581526003602052604081205486906001600160a01b03163314610f97576040516317737e4f60e31b815260040160405180910390fd5b6000878152602081815260408083208984529091528120610fb89087610e7d565b6000898152602081815260408083208b84529091529020909150610fde908787876114a7565b6000878152600560209081526040808320805460ff191690558b8352600682528083208b845290915290205490935081101561104c5760008881526006602090815260408083208a8452909152812080548390811061103f5761103f611c31565b6000918252602090912001555b6040805182815260208101889052908101849052879089907fdc677e2a5f525c9ef229807f861450ddd2cafde2ab74c3282c15d6ac4bf4e14e9060600160405180910390a3505095945050505050565b60006008826040516020016110b391815260200190565b60408051601f198184030181529190528051602090910120901c92915050565b6000818152600460205260409020546001600160a01b0316331461110a576040516334c4245d60e01b815260040160405180910390fd5b60008181526003602090815260408083208054336001600160a01b031980831682179093556004909452828520805490921690915590516001600160a01b0390911692839185917f0ba83579a0e79193ef649b9f5a8759d35af086ba62a3e207b52e4a8ae30d49e391a45050565b60008681526003602052604081205487906001600160a01b031633146111b1576040516317737e4f60e31b815260040160405180910390fd5b6000888152602081815260408083208a845290915281206111d29088610e7d565b60008781526005602052604090205490915060ff16156111fe576111f689896106c4565b9250506112d3565b6000898152602081815260408083208b8452909152902061122290888888886114c0565b6000888152600560209081526040808320805460ff199081169091558a8452818420805490911660011790558c8352600682528083208c84529091529020805491945087918390811061127757611277611c31565b600091825260209182902001919091556040805183815291820189905281018790526060810184905288908a907f9cb99d5b84dd0f1459b05c3c7415d43f100e1c9a7201ed3aa52a77fb8b25ac5e9060800160405180910390a3505b509695505050505050565b6000600080516020611ee6833981519152821061130e576040516361c0541760e11b815260040160405180910390fd5b8160000361132f576040516314b48df160e11b815260040160405180910390fd5b60008281526003840160205260409020541561135e576040516312c50cad60e11b815260040160405180910390fd5b825460018085015490611372908390611cae565b61137d826002611ed9565b101561138f5761138c81611c5d565b90505b600185018190558360005b8281101561146c578084901c60011660010361145057604080518082018252600083815260028a0160209081529083902054825281018490529051632b0aac7f60e11b815273__$75f79a42d9bcbdbb69ad79ebd80f556f39$__9163561558fe916114089190600401611dab565b602060405180830381865af4158015611425573d6000803e3d6000fd5b505050506040513d601f19601f820116820180604052508101906114499190611ddc565b9150611464565b600081815260028801602052604090208290555b60010161139a565b5061147683611c5d565b8087556000928352600287016020908152604080852084905596845260039097019096529390209390935550919050565b60006114b78585600086866114c0565b95945050505050565b6000600080516020611ee683398151915284106114f0576040516361c0541760e11b815260040160405180910390fd5b600085815260038701602052604090205461151e57604051631c811d5b60e21b815260040160405180910390fd5b60008481526003870160205260409020541561154d576040516312c50cad60e11b815260040160405180910390fd5b60006115598787610e7d565b87549091508590879060009061157190600190611d98565b60018b0154909150600090815b818110156118d3578087901c60011660010361173157600080516020611ee68339815191528a8a858181106115b5576115b5611c31565b90506020020135106115da576040516361c0541760e11b815260040160405180910390fd5b73__$75f79a42d9bcbdbb69ad79ebd80f556f39$__63561558fe60405180604001604052808d8d8881811061161157611611611c31565b905060200201358152602001898152506040518263ffffffff1660e01b815260040161163d9190611dab565b602060405180830381865af415801561165a573d6000803e3d6000fd5b505050506040513d601f19601f8201168201806040525081019061167e9190611ddc565b955073__$75f79a42d9bcbdbb69ad79ebd80f556f39$__63561558fe60405180604001604052808d8d888181106116b7576116b7611c31565b905060200201358152602001888152506040518263ffffffff1660e01b81526004016116e39190611dab565b602060405180830381865af4158015611700573d6000803e3d6000fd5b505050506040513d601f19601f820116820180604052508101906117249190611ddc565b94508260010192506118cb565b86811c84821c146118b757600080516020611ee68339815191528a8a8581811061175d5761175d611c31565b9050602002013510611782576040516361c0541760e11b815260040160405180910390fd5b600081815260028e0160205260409020548590036117ae57600081815260028e01602052604090208690555b73__$75f79a42d9bcbdbb69ad79ebd80f556f39$__63561558fe60405180604001604052808981526020018d8d888181106117eb576117eb611c31565b905060200201358152506040518263ffffffff1660e01b81526004016118119190611dab565b602060405180830381865af415801561182e573d6000803e3d6000fd5b505050506040513d601f19601f820116820180604052508101906118529190611ddc565b955073__$75f79a42d9bcbdbb69ad79ebd80f556f39$__63561558fe60405180604001604052808881526020018d8d8881811061189157611891611c31565b905060200201358152506040518263ffffffff1660e01b81526004016116e39190611dab565b600081815260028e01602052604090208690555b60010161157e565b5060018c0154600090815260028d016020526040902054841461190957604051631fd4986360e11b815260040160405180910390fd5b600081815260028d0160205260409020859055891561193b5760008b815260038d016020526040808220548c83529120555b505050600088815260038a0160205260408120555091505095945050505050565b60008083601f84011261196e57600080fd5b50813567ffffffffffffffff81111561198657600080fd5b6020830191508360208260051b85010111156119a157600080fd5b9250929050565b6000806000604084860312156119bd57600080fd5b83359250602084013567ffffffffffffffff8111156119db57600080fd5b6119e78682870161195c565b9497909650939450505050565b600060208284031215611a0657600080fd5b5035919050565b60008060408385031215611a2057600080fd5b50508035926020909101359150565b80356001600160a01b0381168114611a4657600080fd5b919050565b60008060408385031215611a5e57600080fd5b611a6783611a2f565b946020939093013593505050565b600080600060608486031215611a8a57600080fd5b505081359360208301359350604090920135919050565b60008060408385031215611ab457600080fd5b82359150611ac460208401611a2f565b90509250929050565b600060208284031215611adf57600080fd5b6106ec82611a2f565b600080600080600060808688031215611b0057600080fd5b853594506020860135935060408601359250606086013567ffffffffffffffff811115611b2c57600080fd5b611b388882890161195c565b969995985093965092949392505050565b6020808252825182820181905260009190848201906040850190845b81811015611b8157835183529284019291840191600101611b65565b50909695505050505050565b6000808284036101e0811215611ba257600080fd5b833592506101c0601f1982011215611bb957600080fd5b506020830190509250929050565b60008060008060008060a08789031215611be057600080fd5b86359550602087013594506040870135935060608701359250608087013567ffffffffffffffff811115611c1357600080fd5b611c1f89828a0161195c565b979a9699509497509295939492505050565b634e487b7160e01b600052603260045260246000fd5b634e487b7160e01b600052601160045260246000fd5b600060018201611c6f57611c6f611c47565b5060010190565b60006101a0820190508782528660208301528560408301528460608301528360808301526101008360a0840137979650505050505050565b8082018082111561063557610635611c47565b8060005b6002811015611ce4578151845260209384019390910190600101611cc5565b50505050565b6101a08101611cf98288611cc1565b60408083018760005b6002811015611d2957611d16838351611cc1565b9183019160209190910190600101611d02565b50505050611d3a60c0830186611cc1565b61010082018460005b6004811015611d62578151835260209283019290910190600101611d43565b505050826101808301529695505050505050565b600060208284031215611d8857600080fd5b815180151581146106ec57600080fd5b8181038181111561063557610635611c47565b60408101818360005b6002811015611dd3578151835260209283019290910190600101611db4565b50505092915050565b600060208284031215611dee57600080fd5b5051919050565b600181815b80851115611e30578160001904821115611e1657611e16611c47565b80851615611e2357918102915b93841c9390800290611dfa565b509250929050565b600082611e4757506001610635565b81611e5457506000610635565b8160018114611e6a5760028114611e7457611e90565b6001915050610635565b60ff841115611e8557611e85611c47565b50506001821b610635565b5060208310610133831016604e8410600b8410161715611eb3575081810a610635565b611ebd8383611df5565b8060001904821115611ed157611ed1611c47565b029392505050565b60006106ec8383611e3856fe30644e72e131a029b85045b68181585d2833e84879b9709143e1f593f0000001a26469706673582212202e59b584fd70c0c347de92bc1d3bc8fe0f62019f57409eff74225e8023b5d7d864736f6c63430008170033",
    "linkReferences": {
        "poseidon-solidity/PoseidonT3.sol": {
            "PoseidonT3": [
                {
                    "length": 20,
                    "start": 3544
                },
                {
                    "length": 20,
                    "start": 5236
                },
                {
                    "length": 20,
                    "start": 5743
                },
                {
                    "length": 20,
                    "start": 5909
                },
                {
                    "length": 20,
                    "start": 6211
                },
                {
                    "length": 20,
                    "start": 6377
                }
            ]
        }
    },
    "deployedLinkReferences": {
        "poseidon-solidity/PoseidonT3.sol": {
            "PoseidonT3": [
                {
                    "length": 20,
                    "start": 3397
                },
                {
                    "length": 20,
                    "start": 5089
                },
                {
                    "length": 20,
                    "start": 5596
                },
                {
                    "length": 20,
                    "start": 5762
                },
                {
                    "length": 20,
                    "start": 6064
                },
                {
                    "length": 20,
                    "start": 6230
                }
            ]
        }
    }
}